{
  "contractName": "InstaMoney",
  "abi": [
    {
      "inputs": [],
      "stateMutability": "payable",
      "type": "constructor",
      "payable": true
    },
    {
      "inputs": [],
      "name": "admin",
      "outputs": [
        {
          "internalType": "address",
          "name": "",
          "type": "address"
        }
      ],
      "stateMutability": "view",
      "type": "function",
      "constant": true
    },
    {
      "inputs": [],
      "name": "loan_id_counter",
      "outputs": [
        {
          "internalType": "uint256",
          "name": "",
          "type": "uint256"
        }
      ],
      "stateMutability": "view",
      "type": "function",
      "constant": true
    },
    {
      "inputs": [
        {
          "internalType": "uint256",
          "name": "",
          "type": "uint256"
        }
      ],
      "name": "loans",
      "outputs": [
        {
          "internalType": "uint256",
          "name": "id",
          "type": "uint256"
        },
        {
          "internalType": "uint256",
          "name": "amount",
          "type": "uint256"
        },
        {
          "internalType": "uint256",
          "name": "repaid_amt",
          "type": "uint256"
        },
        {
          "internalType": "uint256",
          "name": "term",
          "type": "uint256"
        },
        {
          "internalType": "uint256",
          "name": "rate",
          "type": "uint256"
        },
        {
          "internalType": "address",
          "name": "lender",
          "type": "address"
        },
        {
          "internalType": "address",
          "name": "borrower",
          "type": "address"
        },
        {
          "internalType": "uint256",
          "name": "status",
          "type": "uint256"
        },
        {
          "internalType": "uint256",
          "name": "activated_at",
          "type": "uint256"
        }
      ],
      "stateMutability": "view",
      "type": "function",
      "constant": true
    },
    {
      "inputs": [],
      "name": "user_id_counter",
      "outputs": [
        {
          "internalType": "uint256",
          "name": "",
          "type": "uint256"
        }
      ],
      "stateMutability": "view",
      "type": "function",
      "constant": true
    },
    {
      "inputs": [
        {
          "internalType": "address",
          "name": "",
          "type": "address"
        }
      ],
      "name": "users",
      "outputs": [
        {
          "internalType": "uint256",
          "name": "id",
          "type": "uint256"
        },
        {
          "internalType": "string",
          "name": "name",
          "type": "string"
        },
        {
          "internalType": "string",
          "name": "identification",
          "type": "string"
        }
      ],
      "stateMutability": "view",
      "type": "function",
      "constant": true
    },
    {
      "inputs": [],
      "name": "getLateFine",
      "outputs": [
        {
          "internalType": "uint256",
          "name": "",
          "type": "uint256"
        }
      ],
      "stateMutability": "view",
      "type": "function",
      "constant": true
    },
    {
      "inputs": [
        {
          "internalType": "uint256",
          "name": "new_late_fee",
          "type": "uint256"
        }
      ],
      "name": "changeLateFine",
      "outputs": [],
      "stateMutability": "nonpayable",
      "type": "function"
    },
    {
      "inputs": [
        {
          "internalType": "uint256",
          "name": "loan_id",
          "type": "uint256"
        }
      ],
      "name": "payOffLoan",
      "outputs": [],
      "stateMutability": "payable",
      "type": "function",
      "payable": true
    },
    {
      "inputs": [
        {
          "internalType": "uint256",
          "name": "loan_id",
          "type": "uint256"
        }
      ],
      "name": "findRemainingAmt",
      "outputs": [
        {
          "internalType": "uint256",
          "name": "",
          "type": "uint256"
        }
      ],
      "stateMutability": "view",
      "type": "function",
      "constant": true
    },
    {
      "inputs": [
        {
          "internalType": "string",
          "name": "borrower_name",
          "type": "string"
        },
        {
          "internalType": "string",
          "name": "identification",
          "type": "string"
        },
        {
          "internalType": "uint256",
          "name": "loan_id",
          "type": "uint256"
        },
        {
          "internalType": "uint256",
          "name": "credit_score",
          "type": "uint256"
        },
        {
          "internalType": "bool",
          "name": "signed_collateral_agreement",
          "type": "bool"
        }
      ],
      "name": "takeLoan",
      "outputs": [],
      "stateMutability": "payable",
      "type": "function",
      "payable": true
    },
    {
      "inputs": [
        {
          "internalType": "string",
          "name": "lender_name",
          "type": "string"
        },
        {
          "internalType": "string",
          "name": "identification",
          "type": "string"
        },
        {
          "internalType": "uint256",
          "name": "term",
          "type": "uint256"
        },
        {
          "internalType": "uint256",
          "name": "interest_rate",
          "type": "uint256"
        }
      ],
      "name": "offerLoan",
      "outputs": [],
      "stateMutability": "payable",
      "type": "function",
      "payable": true
    },
    {
      "inputs": [],
      "name": "getBal",
      "outputs": [
        {
          "internalType": "uint256",
          "name": "",
          "type": "uint256"
        }
      ],
      "stateMutability": "view",
      "type": "function",
      "constant": true
    },
    {
      "inputs": [],
      "name": "getTotalProcessed",
      "outputs": [
        {
          "internalType": "uint256",
          "name": "",
          "type": "uint256"
        },
        {
          "internalType": "uint256",
          "name": "",
          "type": "uint256"
        }
      ],
      "stateMutability": "view",
      "type": "function",
      "constant": true
    },
    {
      "inputs": [
        {
          "internalType": "uint256",
          "name": "offer_id",
          "type": "uint256"
        }
      ],
      "name": "cancelOffer",
      "outputs": [],
      "stateMutability": "payable",
      "type": "function",
      "payable": true
    },
    {
      "inputs": [
        {
          "internalType": "uint256",
          "name": "offer_id",
          "type": "uint256"
        }
      ],
      "name": "find_offer",
      "outputs": [
        {
          "internalType": "uint256",
          "name": "",
          "type": "uint256"
        },
        {
          "internalType": "bool",
          "name": "",
          "type": "bool"
        }
      ],
      "stateMutability": "view",
      "type": "function",
      "constant": true
    }
  ],
  "bytecode": "0x6080604052336000806101000a81548173ffffffffffffffffffffffffffffffffffffffff021916908373ffffffffffffffffffffffffffffffffffffffff160217905550600180819055506001600281905550610fa06003819055503073ffffffffffffffffffffffffffffffffffffffff166108fc349081150290604051600060405180830381858888f193505050501580156100a2573d6000803e3d6000fd5b506122a3806100b26000396000f3fe6080604052600436106100e85760003560e01c80637c469cfc1161008a578063ef706adf11610059578063ef706adf1461076b578063f851a44014610799578063fb0c957f146107f0578063fe87f57e1461081b576100e8565b80637c469cfc146104f95780638a4a902314610524578063a87430ba1461054f578063e1ec3c681461068c576100e8565b80632ca9a7d0116100c65780632ca9a7d0146101955780632fdcab27146102fb578063324f1f4f146103555780634022a85c146104c7576100e8565b806309ed8fc9146100ed57806325caa2621461011b5780632a85d34714610146575b600080fd5b6101196004803603602081101561010357600080fd5b8101908080359060200190929190505050610856565b005b34801561012757600080fd5b50610130610c35565b6040518082815260200191505060405180910390f35b34801561015257600080fd5b5061017f6004803603602081101561016957600080fd5b8101908080359060200190929190505050610c3d565b6040518082815260200191505060405180910390f35b6102f9600480360360808110156101ab57600080fd5b81019080803590602001906401000000008111156101c857600080fd5b8201836020820111156101da57600080fd5b803590602001918460018302840111640100000000831117156101fc57600080fd5b91908080601f016020809104026020016040519081016040528093929190818152602001838380828437600081840152601f19601f8201169050808301925050505050505091929192908035906020019064010000000081111561025f57600080fd5b82018360208201111561027157600080fd5b8035906020019184600183028401116401000000008311171561029357600080fd5b91908080601f016020809104026020016040519081016040528093929190818152602001838380828437600081840152601f19601f8201169050808301925050505050505091929192908035906020019092919080359060200190929190505050610dae565b005b34801561030757600080fd5b506103346004803603602081101561031e57600080fd5b8101908080359060200190929190505050611168565b60405180838152602001821515151581526020019250505060405180910390f35b6104c5600480360360a081101561036b57600080fd5b810190808035906020019064010000000081111561038857600080fd5b82018360208201111561039a57600080fd5b803590602001918460018302840111640100000000831117156103bc57600080fd5b91908080601f016020809104026020016040519081016040528093929190818152602001838380828437600081840152601f19601f8201169050808301925050505050505091929192908035906020019064010000000081111561041f57600080fd5b82018360208201111561043157600080fd5b8035906020019184600183028401116401000000008311171561045357600080fd5b91908080601f016020809104026020016040519081016040528093929190818152602001838380828437600081840152601f19601f82011690508083019250505050505050919291929080359060200190929190803590602001909291908035151590602001909291905050506111cd565b005b3480156104d357600080fd5b506104dc611673565b604051808381526020018281526020019250505060405180910390f35b34801561050557600080fd5b5061050e6116e9565b6040518082815260200191505060405180910390f35b34801561053057600080fd5b506105396116ef565b6040518082815260200191505060405180910390f35b34801561055b57600080fd5b5061059e6004803603602081101561057257600080fd5b81019080803573ffffffffffffffffffffffffffffffffffffffff1690602001909291905050506116f5565b604051808481526020018060200180602001838103835285818151815260200191508051906020019080838360005b838110156105e85780820151818401526020810190506105cd565b50505050905090810190601f1680156106155780820380516001836020036101000a031916815260200191505b50838103825284818151815260200191508051906020019080838360005b8381101561064e578082015181840152602081019050610633565b50505050905090810190601f16801561067b5780820380516001836020036101000a031916815260200191505b509550505050505060405180910390f35b34801561069857600080fd5b506106c5600480360360208110156106af57600080fd5b810190808035906020019092919050505061184f565b604051808a81526020018981526020018881526020018781526020018681526020018573ffffffffffffffffffffffffffffffffffffffff1673ffffffffffffffffffffffffffffffffffffffff1681526020018473ffffffffffffffffffffffffffffffffffffffff1673ffffffffffffffffffffffffffffffffffffffff168152602001838152602001828152602001995050505050505050505060405180910390f35b6107976004803603602081101561078157600080fd5b81019080803590602001909291905050506118ea565b005b3480156107a557600080fd5b506107ae611a09565b604051808273ffffffffffffffffffffffffffffffffffffffff1673ffffffffffffffffffffffffffffffffffffffff16815260200191505060405180910390f35b3480156107fc57600080fd5b50610805611a2e565b6040518082815260200191505060405180910390f35b34801561082757600080fd5b506108546004803603602081101561083e57600080fd5b8101908080359060200190929190505050611a38565b005b60003414156108b0576040517f08c379a000000000000000000000000000000000000000000000000000000000815260040180806020018281038252602a815260200180612244602a913960400191505060405180910390fd5b6000806108bc83611168565b9150915080610933576040517f08c379a000000000000000000000000000000000000000000000000000000000815260040180806020018281038252600e8152602001807f4c6f616e206e6f7420666f756e6400000000000000000000000000000000000081525060200191505060405180910390fd5b60016006838154811061094257fe5b906000526020600020906009020160070154146109c7576040517f08c379a00000000000000000000000000000000000000000000000000000000081526004018080602001828103825260128152602001807f4c6f616e206973206e6f7420616374697665000000000000000000000000000081525060200191505060405180910390fd5b6109cf611fc3565b600683815481106109dc57fe5b90600052602060002090600902016040518061012001604052908160008201548152602001600182015481526020016002820154815260200160038201548152602001600482015481526020016005820160009054906101000a900473ffffffffffffffffffffffffffffffffffffffff1673ffffffffffffffffffffffffffffffffffffffff1673ffffffffffffffffffffffffffffffffffffffff1681526020016006820160009054906101000a900473ffffffffffffffffffffffffffffffffffffffff1673ffffffffffffffffffffffffffffffffffffffff1673ffffffffffffffffffffffffffffffffffffffff1681526020016007820154815260200160088201548152505090506000610af582611b04565b905080341115610b50576040517f08c379a00000000000000000000000000000000000000000000000000000000081526004018080602001828103825260228152602001806121386022913960400191505060405180910390fd5b3460068581548110610b5e57fe5b90600052602060002090600902016002016000828254019250508190555080341415610ba957600260068581548110610b9357fe5b9060005260206000209060090201600701819055505b60068481548110610bb657fe5b906000526020600020906009020160050160009054906101000a900473ffffffffffffffffffffffffffffffffffffffff1673ffffffffffffffffffffffffffffffffffffffff166108fc349081150290604051600060405180830381858888f19350505050158015610c2d573d6000803e3d6000fd5b505050505050565b600047905090565b6000806000610c4b84611168565b9150915080610c5f57600092505050610da9565b610c67611fc3565b60068381548110610c7457fe5b90600052602060002090600902016040518061012001604052908160008201548152602001600182015481526020016002820154815260200160038201548152602001600482015481526020016005820160009054906101000a900473ffffffffffffffffffffffffffffffffffffffff1673ffffffffffffffffffffffffffffffffffffffff1673ffffffffffffffffffffffffffffffffffffffff1681526020016006820160009054906101000a900473ffffffffffffffffffffffffffffffffffffffff1673ffffffffffffffffffffffffffffffffffffffff1673ffffffffffffffffffffffffffffffffffffffff16815260200160078201548152602001600882015481525050905060018160e0015114610d9a5760009350505050610da9565b610da381611b04565b93505050505b919050565b6000341415610e08576040517f08c379a000000000000000000000000000000000000000000000000000000000815260040180806020018281038252602a8152602001806121f9602a913960400191505060405180910390fd5b6000821415610e7f576040517f08c379a00000000000000000000000000000000000000000000000000000000081526004018080602001828103825260178152602001807f7465726d2063616e6e6f742062652030206d6f6e74687300000000000000000081525060200191505060405180910390fd5b6000600460003373ffffffffffffffffffffffffffffffffffffffff1673ffffffffffffffffffffffffffffffffffffffff168152602001908152602001600020600001541415610f8857610ed261203b565b60405180606001604052806001600081548092919060010191905055815260200186815260200185815250905080600460003373ffffffffffffffffffffffffffffffffffffffff1673ffffffffffffffffffffffffffffffffffffffff168152602001908152602001600020600082015181600001556020820151816001019080519060200190610f6592919061205c565b506040820151816002019080519060200190610f8292919061205c565b50905050505b610f90611fc3565b60405180610120016040528060026000815480929190600101919050558152602001348152602001600081526020018481526020018381526020013373ffffffffffffffffffffffffffffffffffffffff1681526020013373ffffffffffffffffffffffffffffffffffffffff16815260200160038152602001600081525090506006819080600181540180825580915050600190039060005260206000209060090201600090919091909150600082015181600001556020820151816001015560408201518160020155606082015181600301556080820151816004015560a08201518160050160006101000a81548173ffffffffffffffffffffffffffffffffffffffff021916908373ffffffffffffffffffffffffffffffffffffffff16021790555060c08201518160060160006101000a81548173ffffffffffffffffffffffffffffffffffffffff021916908373ffffffffffffffffffffffffffffffffffffffff16021790555060e082015181600701556101008201518160080155505034600560003373ffffffffffffffffffffffffffffffffffffffff1673ffffffffffffffffffffffffffffffffffffffff168152602001908152602001600020600082825401925050819055505050505050565b60008060008090505b6006805490508110156111bc57836006828154811061118c57fe5b90600052602060002090600902016000015414156111b15780600192509250506111c8565b600181019050611171565b50600080819150915091505b915091565b610258821015611228576040517f08c379a000000000000000000000000000000000000000000000000000000000815260040180806020018281038252602581526020018061219f6025913960400191505060405180910390fd5b8061127e576040517f08c379a00000000000000000000000000000000000000000000000000000000081526004018080602001828103825260358152602001806121c46035913960400191505060405180910390fd5b6000600460003373ffffffffffffffffffffffffffffffffffffffff1673ffffffffffffffffffffffffffffffffffffffff168152602001908152602001600020600001541415611387576112d161203b565b60405180606001604052806001600081548092919060010191905055815260200187815260200186815250905080600460003373ffffffffffffffffffffffffffffffffffffffff1673ffffffffffffffffffffffffffffffffffffffff16815260200190815260200160002060008201518160000155602082015181600101908051906020019061136492919061205c565b50604082015181600201908051906020019061138192919061205c565b50905050505b60008061139385611168565b915091508061140a576040517f08c379a00000000000000000000000000000000000000000000000000000000081526004018080602001828103825260128152602001807f4c6f616e206e6f7420617661696c61626c65000000000000000000000000000081525060200191505060405180910390fd5b60036006838154811061141957fe5b90600052602060002090600902016007015414611481576040517f08c379a000000000000000000000000000000000000000000000000000000000815260040180806020018281038252602281526020018061215a6022913960400191505060405180910390fd5b3373ffffffffffffffffffffffffffffffffffffffff16600683815481106114a557fe5b906000526020600020906009020160050160009054906101000a900473ffffffffffffffffffffffffffffffffffffffff1673ffffffffffffffffffffffffffffffffffffffff161415611561576040517f08c379a000000000000000000000000000000000000000000000000000000000815260040180806020018281038252601d8152602001807f446f6e27742074727920746f20747269636b207468652073797374656d00000081525060200191505060405180910390fd5b336006838154811061156f57fe5b906000526020600020906009020160060160006101000a81548173ffffffffffffffffffffffffffffffffffffffff021916908373ffffffffffffffffffffffffffffffffffffffff1602179055506001600683815481106115cd57fe5b90600052602060002090600902016007018190555042600683815481106115f057fe5b9060005260206000209060090201600801819055503373ffffffffffffffffffffffffffffffffffffffff166108fc6006848154811061162c57fe5b9060005260206000209060090201600101549081150290604051600060405180830381858888f19350505050158015611669573d6000803e3d6000fd5b5050505050505050565b60008060006006805490509050600080905060008090505b6006805490508110156116dc576002600682815481106116a757fe5b90600052602060002090600902016007015414156116ca576002820191506116d1565b6001820191505b60018101905061168b565b5081819350935050509091565b60015481565b60025481565b6004602052806000526040600020600091509050806000015490806001018054600181600116156101000203166002900480601f0160208091040260200160405190810160405280929190818152602001828054600181600116156101000203166002900480156117a75780601f1061177c576101008083540402835291602001916117a7565b820191906000526020600020905b81548152906001019060200180831161178a57829003601f168201915b505050505090806002018054600181600116156101000203166002900480601f0160208091040260200160405190810160405280929190818152602001828054600181600116156101000203166002900480156118455780601f1061181a57610100808354040283529160200191611845565b820191906000526020600020905b81548152906001019060200180831161182857829003601f168201915b5050505050905083565b6006818154811061185c57fe5b90600052602060002090600902016000915090508060000154908060010154908060020154908060030154908060040154908060050160009054906101000a900473ffffffffffffffffffffffffffffffffffffffff16908060060160009054906101000a900473ffffffffffffffffffffffffffffffffffffffff16908060070154908060080154905089565b6000806118f683611b74565b9150915080471015611970576040517f08c379a000000000000000000000000000000000000000000000000000000000815260040180806020018281038252601b8152602001807f4c6f7720436f6e74726163742057616c6c65742042616c616e6365000000000081525060200191505060405180910390fd5b80600560003373ffffffffffffffffffffffffffffffffffffffff1673ffffffffffffffffffffffffffffffffffffffff168152602001908152602001600020600082825403925050819055508173ffffffffffffffffffffffffffffffffffffffff166108fc829081150290604051600060405180830381858888f19350505050158015611a03573d6000803e3d6000fd5b50505050565b6000809054906101000a900473ffffffffffffffffffffffffffffffffffffffff1681565b6000600354905090565b6000809054906101000a900473ffffffffffffffffffffffffffffffffffffffff1673ffffffffffffffffffffffffffffffffffffffff163373ffffffffffffffffffffffffffffffffffffffff1614611afa576040517f08c379a000000000000000000000000000000000000000000000000000000000815260040180806020018281038252601d8152602001807f43616e206f6e6c792062652065786563757465642062792061646d696e00000081525060200191505060405180910390fd5b8060038190555050565b600080826020015190506000603c846101000151420381611b2157fe5b0490506000611b398560200151866080015184611f8a565b9050600080905085610100015162278d0087606001510242031115611b5e5760035490505b8560400151818386010103945050505050919050565b600080600080611b8385611168565b9150915080611bdd576040517f08c379a000000000000000000000000000000000000000000000000000000000815260040180806020018281038252602381526020018061217c6023913960400191505060405180910390fd5b3373ffffffffffffffffffffffffffffffffffffffff1660068381548110611c0157fe5b906000526020600020906009020160050160009054906101000a900473ffffffffffffffffffffffffffffffffffffffff1673ffffffffffffffffffffffffffffffffffffffff1614611c9f576040517f08c379a00000000000000000000000000000000000000000000000000000000081526004018080602001828103825260368152602001806121026036913960400191505060405180910390fd5b600360068381548110611cae57fe5b90600052602060002090600902016007015414611d16576040517f08c379a00000000000000000000000000000000000000000000000000000000081526004018080602001828103825260218152602001806122236021913960400191505060405180910390fd5b600060068381548110611d2557fe5b906000526020600020906009020160050160009054906101000a900473ffffffffffffffffffffffffffffffffffffffff169050600060068481548110611d6857fe5b9060005260206000209060090201600101549050600660016006805490500381548110611d9157fe5b906000526020600020906009020160068581548110611dac57fe5b906000526020600020906009020160008201548160000155600182015481600101556002820154816002015560038201548160030155600482015481600401556005820160009054906101000a900473ffffffffffffffffffffffffffffffffffffffff168160050160006101000a81548173ffffffffffffffffffffffffffffffffffffffff021916908373ffffffffffffffffffffffffffffffffffffffff1602179055506006820160009054906101000a900473ffffffffffffffffffffffffffffffffffffffff168160060160006101000a81548173ffffffffffffffffffffffffffffffffffffffff021916908373ffffffffffffffffffffffffffffffffffffffff16021790555060078201548160070155600882015481600801559050506006805480611edc57fe5b600190038181906000526020600020906009020160008082016000905560018201600090556002820160009055600382016000905560048201600090556005820160006101000a81549073ffffffffffffffffffffffffffffffffffffffff02191690556006820160006101000a81549073ffffffffffffffffffffffffffffffffffffffff0219169055600782016000905560088201600090555050905581819550955050505050915091565b60006018603c61016d6064858789020281611fa157fe5b0481611fa957fe5b0481611fb157fe5b0481611fb957fe5b0490509392505050565b6040518061012001604052806000815260200160008152602001600081526020016000815260200160008152602001600073ffffffffffffffffffffffffffffffffffffffff168152602001600073ffffffffffffffffffffffffffffffffffffffff16815260200160008152602001600081525090565b60405180606001604052806000815260200160608152602001606081525090565b828054600181600116156101000203166002900490600052602060002090601f016020900481019282601f1061209d57805160ff19168380011785556120cb565b828001600101855582156120cb579182015b828111156120ca5782518255916020019190600101906120af565b5b5090506120d891906120dc565b5090565b6120fe91905b808211156120fa5760008160009055506001016120e2565b5090565b9056fe4f6e6c7920746865206f6e652077686f20706f7374656420746865206f666665722063616e2063616e63656c20746865206f66666572506c6561736520646f6e2774207472616e7366657220657874726120616d6f756e744c6f616e20616c72656164792074616b656e20627920736f6d656f6e6520656c73654f66666572696e67204964206e6f7420666f756e642e20506c6561736520636865636b57652063616e2774206c656e6420746f206c6f772063726564697420626f72726f7765727357652063616e2774206c656e6420776974686f757420796f75206167726565696e6720666f722074686520636f6c6c61746572616c506f6f7220796f752e20506c65617365206f6666657220736f6d65206d6f6e6579206174206c656173744f6e6c79206f70656e206f66666572732063616e2062652063616e63656c6c65645a65726f20616d6f756e74206973206e6f742061636365707461626c652061732072657061796d656e74a2646970667358221220f3c439b7168559254b3cbff4bc11db7d890c8573f13ff3446a6582c6813bdcee64736f6c63430006000033",
  "source": "pragma solidity ^0.6.0;\n\ncontract InstaMoney {\n\n    address public admin;\n    uint public user_id_counter;\n    uint public loan_id_counter;\n    uint private late_fine;\n\n    struct  User {\n        uint id;\n        string name;\n        string identification;\n    }\n\n    struct Loan {\n        uint id;\n        uint amount;\n        uint repaid_amt;\n        uint term;      //months\n        uint rate;\n        address lender;\n        address borrower;\n        uint status;    // 1 = Active, 2 = PaidOff , 3 = Open offer\n        uint activated_at;      //timestamp\n    }\n\n    mapping(address => User) public users;\n    mapping(address => uint) private balances;\n    Loan[] public loans;\n\n    modifier onlyAdmin() {\n        require(msg.sender == admin, \"Can only be executed by admin\");\n        _;\n    }\n\n    function getLateFine() public view returns(uint){\n        return late_fine;\n    }\n\n    function changeLateFine(uint new_late_fee) public onlyAdmin {\n        late_fine = new_late_fee;\n    }\n\n    function payOffLoan(uint loan_id) public payable {\n        require(msg.value != 0, \"Zero amount is not acceptable as repayment\");\n\n        (uint at_index, bool found) = find_offer(loan_id);\n\n        require(found, \"Loan not found\");\n        //We are assuming anyone can pay off the loan on behalf of the borrower.\n        //Even the lender or government can pay off if they are willing to forgive the loan\n        require(loans[at_index].status == 1, \"Loan is not active\");\n\n        Loan memory curr = loans[at_index];\n        uint to_repay = calculateRepaymentAmount(curr);\n\n        require(msg.value <= to_repay , \"Please don't transfer extra amount\");\n\n        //accept payment\n        loans[at_index].repaid_amt += msg.value;\n        if(msg.value == to_repay) {\n            loans[at_index].status = 2;    //Paid off completely\n        }\n        payable(loans[at_index].lender).transfer(msg.value);\n    }\n\n    function findRemainingAmt(uint loan_id) public view returns(uint){\n        (uint at_index, bool found) = find_offer(loan_id);\n        if(!found) return 0;\n\n        Loan memory curr = loans[at_index];\n        if(curr.status != 1) return 0;      //is not an active loan\n\n        return calculateRepaymentAmount(curr);\n    }\n\n    function calculateRepaymentAmount(Loan memory curr) private view returns(uint) {\n        uint principal = curr.amount;\n\n        uint time_elapsed_in_minutes = (now - curr.activated_at) / 60;\n        uint interest = calcInterest(curr.amount, curr.rate, time_elapsed_in_minutes);\n\n        uint late_amt = 0;\n        if(now - (curr.term * 30 days) > curr.activated_at) {\n            //Repayment is late\n            late_amt = late_fine;\n        }\n        \n        return principal + interest + late_amt - curr.repaid_amt;\n    }\n\n    function calcInterest(uint amount, uint rate, uint no_of_minutes) private pure returns(uint) {\n        return amount * rate * no_of_minutes / 100 / 365 / 60 / 24;\n    }\n\n    function takeLoan(string memory borrower_name, string memory identification,\n        uint loan_id, uint credit_score, bool signed_collateral_agreement) public payable {\n        require(credit_score >= 600, \"We can't lend to low credit borrowers\");\n        require(signed_collateral_agreement, \"We can't lend without you agreeing for the collateral\");\n        \n        if (users[msg.sender].id == 0) {\n            User memory user = User({id: user_id_counter++, name: borrower_name, identification: identification});\n            users[msg.sender] = user;\n        }\n\n        (uint at_index, bool found) = find_offer(loan_id);\n        require(found, \"Loan not available\");\n        require(loans[at_index].status == 3, \"Loan already taken by someone else\");\n        require(loans[at_index].lender != msg.sender, \"Don't try to trick the system\");\n        \n        //all good. give out loan\n        loans[at_index].borrower = msg.sender;\n        loans[at_index].status = 1; //activate loan\n        loans[at_index].activated_at = now;\n        msg.sender.transfer(loans[at_index].amount);\n    }\n\n    ///term is in days\n    function offerLoan(string memory lender_name, string memory identification,\n                        uint term, uint interest_rate) public payable {\n        require(msg.value != 0, \"Poor you. Please offer some money at least\");\n        require(term != 0, \"term cannot be 0 months\");\n        if (users[msg.sender].id == 0) {\n            User memory user = User({id: user_id_counter++, name: lender_name, identification: identification});\n            users[msg.sender] = user;\n        }\n\n        Loan memory offer = Loan({id: loan_id_counter++, amount: msg.value, repaid_amt: 0, term: term,\n         rate: interest_rate, lender: msg.sender, borrower: msg.sender, status: 3, activated_at: 0});  //open offer\n\n        loans.push(offer);\n\n        balances[msg.sender] += msg.value;\n\n        //if this fails, all the above state changes will be reverted\n    }\n\n    function getBal() public view returns(uint){\n        return address(this).balance;\n    }\n\n    function getTotalProcessed() view public returns(uint, uint){\n        uint loans_until_now = loans.length;\n        uint clients_served = 0;\n        for (uint j = 0; j < loans.length ; j += 1) {\n            if(loans[j].status == 2){\n                clients_served += 2;\n            } else {\n                clients_served += 1;\n            }\n        }\n\n        return (loans_until_now, clients_served);\n    }\n\n    function cancelOffer(uint offer_id) public payable{\n\n        (address payable lender_addr, uint amount_to_return) = removeOffering(offer_id);\n        require(address(this).balance >= amount_to_return, \"Low Contract Wallet Balance\");\n        balances[msg.sender] -= amount_to_return;\n        lender_addr.transfer(amount_to_return);\n    }\n\n    function removeOffering(uint offer_id) private returns(address payable, uint) {\n\n        (uint at_index, bool found) = find_offer(offer_id);\n\n        require(found, \"Offering Id not found. Please check\");\n        require(loans[at_index].lender == msg.sender, \"Only the one who posted the offer can cancel the offer\");\n        require(loans[at_index].status == 3, \"Only open offers can be cancelled\");\n\n        address payable lender_addr = payable(loans[at_index].lender);\n        uint amount_to_return = loans[at_index].amount;\n        loans[at_index] = loans[loans.length - 1];\n        loans.pop();\n\n        return (lender_addr, amount_to_return);\n    }\n\n    function find_offer(uint offer_id) public view returns (uint, bool) {\n        for (uint j = 0; j < loans.length ; j += 1) {\n            if(loans[j].id == offer_id){\n                return (j, true);\n            }\n        }\n        return (0, false);\n    }\n\n    constructor () public payable {\n        admin = msg.sender;\n        user_id_counter = 1;\n        loan_id_counter = 1;\n        late_fine = 4000;\n        payable(address(this)).transfer(msg.value);\n    }\n\n}",
  "sourcePath": "/Users/prateekbhuwania/Documents/UB/Blockchain/instamoney/contracts/InstaMoney.sol",
  "compiler": {
    "name": "solc",
    "version": "0.6.0+commit.26b70077.Emscripten.clang"
  },
  "schemaVersion": "3.4.5",
  "updatedAt": "2022-04-14T21:21:10.475Z",
  "networkType": "ethereum",
  "devdoc": {
    "methods": {}
  },
  "userdoc": {
    "methods": {
      "offerLoan(string,string,uint256,uint256)": {
        "notice": "term is in days"
      }
    }
  }
}