{
  "contractName": "ERC20MYN",
  "abi": [
    {
      "inputs": [
        {
          "internalType": "uint256",
          "name": "total",
          "type": "uint256"
        }
      ],
      "stateMutability": "nonpayable",
      "type": "constructor"
    },
    {
      "anonymous": false,
      "inputs": [
        {
          "indexed": true,
          "internalType": "address",
          "name": "tokenOwner",
          "type": "address"
        },
        {
          "indexed": true,
          "internalType": "address",
          "name": "spender",
          "type": "address"
        },
        {
          "indexed": false,
          "internalType": "uint256",
          "name": "tokens",
          "type": "uint256"
        }
      ],
      "name": "Approval",
      "type": "event"
    },
    {
      "anonymous": false,
      "inputs": [
        {
          "indexed": true,
          "internalType": "address",
          "name": "from",
          "type": "address"
        },
        {
          "indexed": true,
          "internalType": "address",
          "name": "to",
          "type": "address"
        },
        {
          "indexed": false,
          "internalType": "uint256",
          "name": "tokens",
          "type": "uint256"
        }
      ],
      "name": "Transfer",
      "type": "event"
    },
    {
      "inputs": [],
      "name": "decimals",
      "outputs": [
        {
          "internalType": "uint8",
          "name": "",
          "type": "uint8"
        }
      ],
      "stateMutability": "view",
      "type": "function"
    },
    {
      "inputs": [],
      "name": "name",
      "outputs": [
        {
          "internalType": "string",
          "name": "",
          "type": "string"
        }
      ],
      "stateMutability": "view",
      "type": "function"
    },
    {
      "inputs": [],
      "name": "symbol",
      "outputs": [
        {
          "internalType": "string",
          "name": "",
          "type": "string"
        }
      ],
      "stateMutability": "view",
      "type": "function"
    },
    {
      "inputs": [],
      "name": "totalSupply",
      "outputs": [
        {
          "internalType": "uint256",
          "name": "",
          "type": "uint256"
        }
      ],
      "stateMutability": "view",
      "type": "function"
    },
    {
      "inputs": [
        {
          "internalType": "address",
          "name": "tokenOwner",
          "type": "address"
        }
      ],
      "name": "balanceOf",
      "outputs": [
        {
          "internalType": "uint256",
          "name": "",
          "type": "uint256"
        }
      ],
      "stateMutability": "view",
      "type": "function"
    },
    {
      "inputs": [
        {
          "internalType": "address",
          "name": "receiver",
          "type": "address"
        },
        {
          "internalType": "uint256",
          "name": "numTokens",
          "type": "uint256"
        }
      ],
      "name": "transfer",
      "outputs": [
        {
          "internalType": "bool",
          "name": "",
          "type": "bool"
        }
      ],
      "stateMutability": "payable",
      "type": "function"
    },
    {
      "inputs": [
        {
          "internalType": "address",
          "name": "delegate",
          "type": "address"
        },
        {
          "internalType": "uint256",
          "name": "numTokens",
          "type": "uint256"
        }
      ],
      "name": "approve",
      "outputs": [
        {
          "internalType": "bool",
          "name": "",
          "type": "bool"
        }
      ],
      "stateMutability": "nonpayable",
      "type": "function"
    },
    {
      "inputs": [
        {
          "internalType": "address",
          "name": "owner",
          "type": "address"
        },
        {
          "internalType": "address",
          "name": "delegate",
          "type": "address"
        }
      ],
      "name": "allowance",
      "outputs": [
        {
          "internalType": "uint256",
          "name": "",
          "type": "uint256"
        }
      ],
      "stateMutability": "view",
      "type": "function"
    },
    {
      "inputs": [
        {
          "internalType": "address",
          "name": "owner",
          "type": "address"
        },
        {
          "internalType": "address",
          "name": "buyer",
          "type": "address"
        },
        {
          "internalType": "uint256",
          "name": "numTokens",
          "type": "uint256"
        }
      ],
      "name": "transferFrom",
      "outputs": [
        {
          "internalType": "bool",
          "name": "",
          "type": "bool"
        }
      ],
      "stateMutability": "nonpayable",
      "type": "function"
    },
    {
      "inputs": [],
      "name": "close",
      "outputs": [],
      "stateMutability": "nonpayable",
      "type": "function"
    }
  ],
  "bytecode": "0x608060405234801561001057600080fd5b50604051610ddb380380610ddb8339818101604052602081101561003357600080fd5b810190808051906020019092919050505080600381905550600354600160003373ffffffffffffffffffffffffffffffffffffffff1673ffffffffffffffffffffffffffffffffffffffff16815260200190815260200160002081905550336000806101000a81548173ffffffffffffffffffffffffffffffffffffffff021916908373ffffffffffffffffffffffffffffffffffffffff16021790555050610cfa806100e16000396000f3fe6080604052600436106100915760003560e01c806343d726d61161005957806343d726d61461028157806370a082311461029857806395d89b41146102fd578063a9059cbb1461038d578063dd62ed3e146103f157610091565b806306fdde0314610096578063095ea7b31461012657806318160ddd1461019757806323b872dd146101c2578063313ce56714610253575b600080fd5b3480156100a257600080fd5b506100ab610476565b6040518080602001828103825283818151815260200191508051906020019080838360005b838110156100eb5780820151818401526020810190506100d0565b50505050905090810190601f1680156101185780820380516001836020036101000a031916815260200191505b509250505060405180910390f35b34801561013257600080fd5b5061017f6004803603604081101561014957600080fd5b81019080803573ffffffffffffffffffffffffffffffffffffffff169060200190929190803590602001909291905050506104af565b60405180821515815260200191505060405180910390f35b3480156101a357600080fd5b506101ac6105a1565b6040518082815260200191505060405180910390f35b3480156101ce57600080fd5b5061023b600480360360608110156101e557600080fd5b81019080803573ffffffffffffffffffffffffffffffffffffffff169060200190929190803573ffffffffffffffffffffffffffffffffffffffff169060200190929190803590602001909291905050506105ab565b60405180821515815260200191505060405180910390f35b34801561025f57600080fd5b5061026861092b565b604051808260ff16815260200191505060405180910390f35b34801561028d57600080fd5b50610296610930565b005b3480156102a457600080fd5b506102e7600480360360208110156102bb57600080fd5b81019080803573ffffffffffffffffffffffffffffffffffffffff1690602001909291905050506109a1565b6040518082815260200191505060405180910390f35b34801561030957600080fd5b506103126109ea565b6040518080602001828103825283818151815260200191508051906020019080838360005b83811015610352578082015181840152602081019050610337565b50505050905090810190601f16801561037f5780820380516001836020036101000a031916815260200191505b509250505060405180910390f35b6103d9600480360360408110156103a357600080fd5b81019080803573ffffffffffffffffffffffffffffffffffffffff16906020019092919080359060200190929190505050610a23565b60405180821515815260200191505060405180910390f35b3480156103fd57600080fd5b506104606004803603604081101561041457600080fd5b81019080803573ffffffffffffffffffffffffffffffffffffffff169060200190929190803573ffffffffffffffffffffffffffffffffffffffff169060200190929190505050610c0a565b6040518082815260200191505060405180910390f35b6040518060400160405280600581526020017f4d5544524100000000000000000000000000000000000000000000000000000081525081565b600081600260003373ffffffffffffffffffffffffffffffffffffffff1673ffffffffffffffffffffffffffffffffffffffff16815260200190815260200160002060008573ffffffffffffffffffffffffffffffffffffffff1673ffffffffffffffffffffffffffffffffffffffff168152602001908152602001600020819055508273ffffffffffffffffffffffffffffffffffffffff163373ffffffffffffffffffffffffffffffffffffffff167f8c5be1e5ebec7d5bd14f71427d1e84f3dd0314c0f7b2291e5b200ac8c7c3b925846040518082815260200191505060405180910390a36001905092915050565b6000600354905090565b6000600160008573ffffffffffffffffffffffffffffffffffffffff1673ffffffffffffffffffffffffffffffffffffffff168152602001908152602001600020548211156105f957600080fd5b600260008573ffffffffffffffffffffffffffffffffffffffff1673ffffffffffffffffffffffffffffffffffffffff16815260200190815260200160002060003373ffffffffffffffffffffffffffffffffffffffff1673ffffffffffffffffffffffffffffffffffffffff1681526020019081526020016000205482111561068257600080fd5b6106d482600160008773ffffffffffffffffffffffffffffffffffffffff1673ffffffffffffffffffffffffffffffffffffffff16815260200190815260200160002054610c9190919063ffffffff16565b600160008673ffffffffffffffffffffffffffffffffffffffff1673ffffffffffffffffffffffffffffffffffffffff168152602001908152602001600020819055506107a682600260008773ffffffffffffffffffffffffffffffffffffffff1673ffffffffffffffffffffffffffffffffffffffff16815260200190815260200160002060003373ffffffffffffffffffffffffffffffffffffffff1673ffffffffffffffffffffffffffffffffffffffff16815260200190815260200160002054610c9190919063ffffffff16565b600260008673ffffffffffffffffffffffffffffffffffffffff1673ffffffffffffffffffffffffffffffffffffffff16815260200190815260200160002060003373ffffffffffffffffffffffffffffffffffffffff1673ffffffffffffffffffffffffffffffffffffffff1681526020019081526020016000208190555061087882600160008673ffffffffffffffffffffffffffffffffffffffff1673ffffffffffffffffffffffffffffffffffffffff16815260200190815260200160002054610ca890919063ffffffff16565b600160008573ffffffffffffffffffffffffffffffffffffffff1673ffffffffffffffffffffffffffffffffffffffff168152602001908152602001600020819055508273ffffffffffffffffffffffffffffffffffffffff168473ffffffffffffffffffffffffffffffffffffffff167fddf252ad1be2c89b69c2b068fc378daa952ba7f163c4a11628f55a4df523b3ef846040518082815260200191505060405180910390a3600190509392505050565b600281565b60008054906101000a900473ffffffffffffffffffffffffffffffffffffffff1673ffffffffffffffffffffffffffffffffffffffff163373ffffffffffffffffffffffffffffffffffffffff161461098857600080fd5b3373ffffffffffffffffffffffffffffffffffffffff16ff5b6000600160008373ffffffffffffffffffffffffffffffffffffffff1673ffffffffffffffffffffffffffffffffffffffff168152602001908152602001600020549050919050565b6040518060400160405280600381526020017f4d4452000000000000000000000000000000000000000000000000000000000081525081565b6000600160003373ffffffffffffffffffffffffffffffffffffffff1673ffffffffffffffffffffffffffffffffffffffff16815260200190815260200160002054821115610a7157600080fd5b610ac382600160003373ffffffffffffffffffffffffffffffffffffffff1673ffffffffffffffffffffffffffffffffffffffff16815260200190815260200160002054610c9190919063ffffffff16565b600160003373ffffffffffffffffffffffffffffffffffffffff1673ffffffffffffffffffffffffffffffffffffffff16815260200190815260200160002081905550610b5882600160008673ffffffffffffffffffffffffffffffffffffffff1673ffffffffffffffffffffffffffffffffffffffff16815260200190815260200160002054610ca890919063ffffffff16565b600160008573ffffffffffffffffffffffffffffffffffffffff1673ffffffffffffffffffffffffffffffffffffffff168152602001908152602001600020819055508273ffffffffffffffffffffffffffffffffffffffff163373ffffffffffffffffffffffffffffffffffffffff167fddf252ad1be2c89b69c2b068fc378daa952ba7f163c4a11628f55a4df523b3ef846040518082815260200191505060405180910390a36001905092915050565b6000600260008473ffffffffffffffffffffffffffffffffffffffff1673ffffffffffffffffffffffffffffffffffffffff16815260200190815260200160002060008373ffffffffffffffffffffffffffffffffffffffff1673ffffffffffffffffffffffffffffffffffffffff16815260200190815260200160002054905092915050565b600082821115610c9d57fe5b818303905092915050565b600080828401905083811015610cba57fe5b809150509291505056fea26469706673582212207fc9295e09b11a09341d08049f411eff2078f350e98640ea5cc187180ec9a40864736f6c634300060c0033",
  "immutableReferences": {},
  "source": "//SPDX-License-Identifier: UNLICENSED\r\n//pragma solidity ^0.4.19;\r\npragma solidity ^0.6.0;\r\n\r\ncontract ERC20MYN {\r\n\r\n    string public constant name = \"MUDRA\";\r\n    string public constant symbol = \"MDR\";\r\n    uint8 public constant decimals = 2;  \r\n   \r\n    address ERCowner; //#1\r\n    \r\n\r\n    event Approval(address indexed tokenOwner, address indexed spender, uint tokens);\r\n    event Transfer(address indexed from, address indexed to, uint tokens);\r\n\r\n\r\n    mapping(address => uint256) balances;\r\n\r\n    mapping(address => mapping (address => uint256)) allowed;\r\n    \r\n    uint256 totalSupply_;\r\n\r\n    using SafeMath for uint256;\r\n\r\n\r\n   constructor(uint256 total) public {  \r\n\ttotalSupply_ = total;\r\n\tbalances[msg.sender] = totalSupply_;\r\n\tERCowner = msg.sender; //#2\r\n    }  \r\n\r\n    function totalSupply() public view returns (uint256) {\r\n\treturn totalSupply_;\r\n    }\r\n    \r\n    function balanceOf(address tokenOwner) public view returns (uint) {\r\n        return balances[tokenOwner];\r\n    }\r\n\r\n    function transfer(address receiver, uint numTokens) payable public returns (bool) {\r\n        require(numTokens <= balances[msg.sender]);\r\n        balances[msg.sender] = balances[msg.sender].sub(numTokens);\r\n        balances[receiver] = balances[receiver].add(numTokens);\r\n        emit Transfer(msg.sender, receiver, numTokens);\r\n        return true;\r\n    }\r\n\r\n    function approve(address delegate, uint numTokens) public returns (bool) {\r\n        allowed[msg.sender][delegate] = numTokens;\r\n        emit Approval(msg.sender, delegate, numTokens);\r\n        return true;\r\n    }\r\n\r\n    function allowance(address owner, address delegate) public view returns (uint) {\r\n        return allowed[owner][delegate];\r\n    }\r\n\r\n    function transferFrom(address owner, address buyer, uint numTokens) public returns (bool) {\r\n        require(numTokens <= balances[owner]);    \r\n        require(numTokens <= allowed[owner][msg.sender]);\r\n    \r\n        balances[owner] = balances[owner].sub(numTokens);\r\n        allowed[owner][msg.sender] = allowed[owner][msg.sender].sub(numTokens);\r\n        balances[buyer] = balances[buyer].add(numTokens);\r\n        emit Transfer(owner, buyer, numTokens);\r\n        return true;\r\n    }\r\n    \r\n    //#3\r\n    function close() public { \r\n        require(msg.sender == ERCowner);\r\n        selfdestruct(msg.sender); \r\n     }\r\n \r\n}\r\n\r\nlibrary SafeMath { \r\n    function sub(uint256 a, uint256 b) internal pure returns (uint256) {\r\n      assert(b <= a);\r\n      return a - b;\r\n    }\r\n    \r\n    function add(uint256 a, uint256 b) internal pure returns (uint256) {\r\n      uint256 c = a + b;\r\n      assert(c >= a);\r\n      return c;\r\n    }\r\n}",
  "sourcePath": "C:\\Users\\aamir\\Desktop\\instamoney\\contracts\\ERC.sol",
  "compiler": {
    "name": "solc",
    "version": "0.6.12+commit.27d51765.Emscripten.clang"
  },
  "schemaVersion": "3.4.5",
  "updatedAt": "2022-04-28T00:39:07.175Z",
  "devdoc": {
    "kind": "dev",
    "methods": {},
    "version": 1
  },
  "userdoc": {
    "kind": "user",
    "methods": {},
    "version": 1
  }
}