{
  "contractName": "InstaMoney",
  "abi": [
    {
      "inputs": [],
      "stateMutability": "payable",
      "type": "constructor"
    },
    {
      "inputs": [],
      "name": "admin",
      "outputs": [
        {
          "internalType": "address",
          "name": "",
          "type": "address"
        }
      ],
      "stateMutability": "view",
      "type": "function"
    },
    {
      "inputs": [],
      "name": "loan_id_counter",
      "outputs": [
        {
          "internalType": "uint256",
          "name": "",
          "type": "uint256"
        }
      ],
      "stateMutability": "view",
      "type": "function"
    },
    {
      "inputs": [],
      "name": "user_id_counter",
      "outputs": [
        {
          "internalType": "uint256",
          "name": "",
          "type": "uint256"
        }
      ],
      "stateMutability": "view",
      "type": "function"
    },
    {
      "inputs": [
        {
          "internalType": "address",
          "name": "",
          "type": "address"
        }
      ],
      "name": "users",
      "outputs": [
        {
          "internalType": "uint256",
          "name": "id",
          "type": "uint256"
        },
        {
          "internalType": "string",
          "name": "name",
          "type": "string"
        },
        {
          "internalType": "string",
          "name": "identification",
          "type": "string"
        },
        {
          "internalType": "uint256",
          "name": "credit_score",
          "type": "uint256"
        },
        {
          "internalType": "bool",
          "name": "signed_collateral_agreement",
          "type": "bool"
        }
      ],
      "stateMutability": "view",
      "type": "function"
    },
    {
      "inputs": [
        {
          "internalType": "address",
          "name": "addr",
          "type": "address"
        }
      ],
      "name": "getUserDetails",
      "outputs": [
        {
          "components": [
            {
              "internalType": "uint256",
              "name": "id",
              "type": "uint256"
            },
            {
              "internalType": "string",
              "name": "name",
              "type": "string"
            },
            {
              "internalType": "string",
              "name": "identification",
              "type": "string"
            },
            {
              "internalType": "uint256",
              "name": "credit_score",
              "type": "uint256"
            },
            {
              "internalType": "bool",
              "name": "signed_collateral_agreement",
              "type": "bool"
            }
          ],
          "internalType": "struct InstaMoney.User",
          "name": "",
          "type": "tuple"
        }
      ],
      "stateMutability": "view",
      "type": "function"
    },
    {
      "inputs": [],
      "name": "getLateFine",
      "outputs": [
        {
          "internalType": "uint256",
          "name": "",
          "type": "uint256"
        }
      ],
      "stateMutability": "view",
      "type": "function"
    },
    {
      "inputs": [],
      "name": "getAllLoans",
      "outputs": [
        {
          "components": [
            {
              "internalType": "uint256",
              "name": "id",
              "type": "uint256"
            },
            {
              "internalType": "uint256",
              "name": "amount",
              "type": "uint256"
            },
            {
              "internalType": "uint256",
              "name": "repaid_amt",
              "type": "uint256"
            },
            {
              "internalType": "uint256",
              "name": "term",
              "type": "uint256"
            },
            {
              "internalType": "uint256",
              "name": "rate",
              "type": "uint256"
            },
            {
              "internalType": "address",
              "name": "lender",
              "type": "address"
            },
            {
              "internalType": "address",
              "name": "borrower",
              "type": "address"
            },
            {
              "internalType": "uint256",
              "name": "status",
              "type": "uint256"
            },
            {
              "internalType": "uint256",
              "name": "activated_at",
              "type": "uint256"
            }
          ],
          "internalType": "struct InstaMoney.Loan[]",
          "name": "",
          "type": "tuple[]"
        }
      ],
      "stateMutability": "view",
      "type": "function"
    },
    {
      "inputs": [
        {
          "internalType": "uint256",
          "name": "new_late_fee",
          "type": "uint256"
        }
      ],
      "name": "changeLateFine",
      "outputs": [],
      "stateMutability": "nonpayable",
      "type": "function"
    },
    {
      "inputs": [
        {
          "internalType": "uint256",
          "name": "loan_id",
          "type": "uint256"
        }
      ],
      "name": "payOffLoan",
      "outputs": [],
      "stateMutability": "payable",
      "type": "function"
    },
    {
      "inputs": [
        {
          "internalType": "uint256",
          "name": "loan_id",
          "type": "uint256"
        }
      ],
      "name": "calculateRepaymentAmount",
      "outputs": [
        {
          "internalType": "uint256",
          "name": "",
          "type": "uint256"
        }
      ],
      "stateMutability": "view",
      "type": "function"
    },
    {
      "inputs": [
        {
          "internalType": "string",
          "name": "borrower_name",
          "type": "string"
        },
        {
          "internalType": "string",
          "name": "identification",
          "type": "string"
        },
        {
          "internalType": "uint256",
          "name": "credit_score",
          "type": "uint256"
        },
        {
          "internalType": "bool",
          "name": "signed_collateral_agreement",
          "type": "bool"
        }
      ],
      "name": "borrowReg",
      "outputs": [],
      "stateMutability": "payable",
      "type": "function"
    },
    {
      "inputs": [
        {
          "internalType": "string",
          "name": "borrower_name",
          "type": "string"
        },
        {
          "internalType": "string",
          "name": "identification",
          "type": "string"
        },
        {
          "internalType": "uint256",
          "name": "loan_id",
          "type": "uint256"
        },
        {
          "internalType": "uint256",
          "name": "credit_score",
          "type": "uint256"
        },
        {
          "internalType": "bool",
          "name": "signed_collateral_agreement",
          "type": "bool"
        }
      ],
      "name": "takeLoan",
      "outputs": [],
      "stateMutability": "payable",
      "type": "function"
    },
    {
      "inputs": [
        {
          "internalType": "string",
          "name": "lender_name",
          "type": "string"
        },
        {
          "internalType": "string",
          "name": "identification",
          "type": "string"
        },
        {
          "internalType": "uint256",
          "name": "term",
          "type": "uint256"
        },
        {
          "internalType": "uint256",
          "name": "interest_rate",
          "type": "uint256"
        }
      ],
      "name": "offerLoan",
      "outputs": [],
      "stateMutability": "payable",
      "type": "function"
    },
    {
      "inputs": [],
      "name": "getBal",
      "outputs": [
        {
          "internalType": "uint256",
          "name": "",
          "type": "uint256"
        }
      ],
      "stateMutability": "view",
      "type": "function"
    },
    {
      "inputs": [],
      "name": "getTotalProcessed",
      "outputs": [
        {
          "internalType": "uint256",
          "name": "",
          "type": "uint256"
        },
        {
          "internalType": "uint256",
          "name": "",
          "type": "uint256"
        }
      ],
      "stateMutability": "view",
      "type": "function"
    },
    {
      "inputs": [
        {
          "internalType": "uint256",
          "name": "offer_id",
          "type": "uint256"
        }
      ],
      "name": "cancelOffer",
      "outputs": [],
      "stateMutability": "payable",
      "type": "function"
    },
    {
      "inputs": [
        {
          "internalType": "uint256",
          "name": "offer_id",
          "type": "uint256"
        }
      ],
      "name": "find_offer",
      "outputs": [
        {
          "internalType": "uint256",
          "name": "",
          "type": "uint256"
        },
        {
          "internalType": "bool",
          "name": "",
          "type": "bool"
        }
      ],
      "stateMutability": "view",
      "type": "function"
    }
  ],
  "bytecode": "0x6080604052336000806101000a81548173ffffffffffffffffffffffffffffffffffffffff021916908373ffffffffffffffffffffffffffffffffffffffff160217905550600180819055506001600281905550610fa06003819055503073ffffffffffffffffffffffffffffffffffffffff166108fc349081150290604051600060405180830381858888f193505050501580156100a2573d6000803e3d6000fd5b50612ca0806100b26000396000f3fe6080604052600436106100fe5760003560e01c8063a5bfd16a11610095578063cc3d967b11610064578063cc3d967b14610307578063ef706adf14610344578063f851a44014610360578063fb0c957f1461038b578063fe87f57e146103b6576100fe565b8063a5bfd16a14610242578063a87430ba1461026d578063b1197239146102ae578063b733f572146102eb576100fe565b8063324f1f4f116100d1578063324f1f4f146101a45780634022a85c146101c05780637c469cfc146101ec5780638a4a902314610217576100fe565b806309ed8fc91461010357806325caa2621461011f5780632ca9a7d01461014a5780632fdcab2714610166575b600080fd5b61011d60048036038101906101189190611fa8565b6103df565b005b34801561012b57600080fd5b50610134610608565b60405161014191906129fd565b60405180910390f35b610164600480360381019061015f9190611e6e565b610610565b005b34801561017257600080fd5b5061018d60048036038101906101889190611fa8565b6109bc565b60405161019b929190612a18565b60405180910390f35b6101be60048036038101906101b99190611f01565b610a1b565b005b3480156101cc57600080fd5b506101d5610e51565b6040516101e3929190612aa2565b60405180910390f35b3480156101f857600080fd5b50610201610ec0565b60405161020e91906129fd565b60405180910390f35b34801561022357600080fd5b5061022c610ec6565b60405161023991906129fd565b60405180910390f35b34801561024e57600080fd5b50610257610ecc565b60405161026491906127b9565b60405180910390f35b34801561027957600080fd5b50610294600480360381019061028f9190611db2565b61101e565b6040516102a5959493929190612a41565b60405180910390f35b3480156102ba57600080fd5b506102d560048036038101906102d09190611fa8565b611191565b6040516102e291906129fd565b60405180910390f35b61030560048036038101906103009190611ddb565b611307565b005b34801561031357600080fd5b5061032e60048036038101906103299190611db2565b61144e565b60405161033b91906129db565b60405180910390f35b61035e60048036038101906103599190611fa8565b61161a565b005b34801561036c57600080fd5b50610375611706565b604051610382919061279e565b60405180910390f35b34801561039757600080fd5b506103a061172a565b6040516103ad91906129fd565b60405180910390f35b3480156103c257600080fd5b506103dd60048036038101906103d89190611fa8565b611734565b005b6000341415610423576040517f08c379a000000000000000000000000000000000000000000000000000000000815260040161041a906129bb565b60405180910390fd5b60008061042f836109bc565b9150915080610473576040517f08c379a000000000000000000000000000000000000000000000000000000000815260040161046a906127fb565b60405180910390fd5b60016006838154811061048257fe5b906000526020600020906009020160070154146104d4576040517f08c379a00000000000000000000000000000000000000000000000000000000081526004016104cb906127db565b60405180910390fd5b60006104df84611191565b905080341115610524576040517f08c379a000000000000000000000000000000000000000000000000000000000815260040161051b9061283b565b60405180910390fd5b346006848154811061053257fe5b9060005260206000209060090201600201600082825401925050819055508034141561057d5760026006848154811061056757fe5b9060005260206000209060090201600701819055505b6006838154811061058a57fe5b906000526020600020906009020160050160009054906101000a900473ffffffffffffffffffffffffffffffffffffffff1673ffffffffffffffffffffffffffffffffffffffff166108fc349081150290604051600060405180830381858888f19350505050158015610601573d6000803e3d6000fd5b5050505050565b600047905090565b6000341415610654576040517f08c379a000000000000000000000000000000000000000000000000000000000815260040161064b9061291b565b60405180910390fd5b6000821415610698576040517f08c379a000000000000000000000000000000000000000000000000000000000815260040161068f9061289b565b60405180910390fd5b6000600460003373ffffffffffffffffffffffffffffffffffffffff1673ffffffffffffffffffffffffffffffffffffffff1681526020019081526020016000206000015414156107db576106eb611bd9565b6040518060a00160405280600160008154809291906001019190505581526020018681526020018581526020016000815260200160001515815250905080600460003373ffffffffffffffffffffffffffffffffffffffff1673ffffffffffffffffffffffffffffffffffffffff16815260200190815260200160002060008201518160000155602082015181600101908051906020019061078e929190611c0a565b5060408201518160020190805190602001906107ab929190611c0a565b506060820151816003015560808201518160040160006101000a81548160ff021916908315150217905550905050505b6107e3611c8a565b60405180610120016040528060026000815480929190600101919050558152602001348152602001600081526020018481526020018381526020013373ffffffffffffffffffffffffffffffffffffffff168152602001600073ffffffffffffffffffffffffffffffffffffffff16815260200160038152602001600081525090506006819080600181540180825580915050600190039060005260206000209060090201600090919091909150600082015181600001556020820151816001015560408201518160020155606082015181600301556080820151816004015560a08201518160050160006101000a81548173ffffffffffffffffffffffffffffffffffffffff021916908373ffffffffffffffffffffffffffffffffffffffff16021790555060c08201518160060160006101000a81548173ffffffffffffffffffffffffffffffffffffffff021916908373ffffffffffffffffffffffffffffffffffffffff16021790555060e082015181600701556101008201518160080155505034600560003373ffffffffffffffffffffffffffffffffffffffff1673ffffffffffffffffffffffffffffffffffffffff168152602001908152602001600020600082825401925050819055505050505050565b60008060005b600680549050811015610a0d5783600682815481106109dd57fe5b9060005260206000209060090201600001541415610a02578060019250925050610a16565b6001810190506109c2565b50600080915091505b915091565b610258821015610a60576040517f08c379a0000000000000000000000000000000000000000000000000000000008152600401610a57906128db565b60405180910390fd5b80610aa0576040517f08c379a0000000000000000000000000000000000000000000000000000000008152600401610a97906128fb565b60405180910390fd5b6000600460003373ffffffffffffffffffffffffffffffffffffffff1673ffffffffffffffffffffffffffffffffffffffff168152602001908152602001600020600001541415610be157610af3611bd9565b6040518060a0016040528060016000815480929190600101919050558152602001878152602001868152602001848152602001831515815250905080600460003373ffffffffffffffffffffffffffffffffffffffff1673ffffffffffffffffffffffffffffffffffffffff168152602001908152602001600020600082015181600001556020820151816001019080519060200190610b94929190611c0a565b506040820151816002019080519060200190610bb1929190611c0a565b506060820151816003015560808201518160040160006101000a81548160ff021916908315150217905550905050505b600080610bed856109bc565b9150915080610c31576040517f08c379a0000000000000000000000000000000000000000000000000000000008152600401610c289061297b565b60405180910390fd5b600360068381548110610c4057fe5b90600052602060002090600902016007015414610c92576040517f08c379a0000000000000000000000000000000000000000000000000000000008152600401610c899061285b565b60405180910390fd5b3373ffffffffffffffffffffffffffffffffffffffff1660068381548110610cb657fe5b906000526020600020906009020160050160009054906101000a900473ffffffffffffffffffffffffffffffffffffffff1673ffffffffffffffffffffffffffffffffffffffff161415610d3f576040517f08c379a0000000000000000000000000000000000000000000000000000000008152600401610d369061295b565b60405180910390fd5b3360068381548110610d4d57fe5b906000526020600020906009020160060160006101000a81548173ffffffffffffffffffffffffffffffffffffffff021916908373ffffffffffffffffffffffffffffffffffffffff160217905550600160068381548110610dab57fe5b9060005260206000209060090201600701819055504260068381548110610dce57fe5b9060005260206000209060090201600801819055503373ffffffffffffffffffffffffffffffffffffffff166108fc60068481548110610e0a57fe5b9060005260206000209060090201600101549081150290604051600060405180830381858888f19350505050158015610e47573d6000803e3d6000fd5b5050505050505050565b600080600060068054905090506000805b600680549050811015610eb357600260068281548110610e7e57fe5b9060005260206000209060090201600701541415610ea157600282019150610ea8565b6001820191505b600181019050610e62565b5081819350935050509091565b60015481565b60025481565b60606006805480602002602001604051908101604052809291908181526020016000905b8282101561101557838290600052602060002090600902016040518061012001604052908160008201548152602001600182015481526020016002820154815260200160038201548152602001600482015481526020016005820160009054906101000a900473ffffffffffffffffffffffffffffffffffffffff1673ffffffffffffffffffffffffffffffffffffffff1673ffffffffffffffffffffffffffffffffffffffff1681526020016006820160009054906101000a900473ffffffffffffffffffffffffffffffffffffffff1673ffffffffffffffffffffffffffffffffffffffff1673ffffffffffffffffffffffffffffffffffffffff1681526020016007820154815260200160088201548152505081526020019060010190610ef0565b50505050905090565b6004602052806000526040600020600091509050806000015490806001018054600181600116156101000203166002900480601f0160208091040260200160405190810160405280929190818152602001828054600181600116156101000203166002900480156110d05780601f106110a5576101008083540402835291602001916110d0565b820191906000526020600020905b8154815290600101906020018083116110b357829003601f168201915b505050505090806002018054600181600116156101000203166002900480601f01602080910402602001604051908101604052809291908181526020018280546001816001161561010002031660029004801561116e5780601f106111435761010080835404028352916020019161116e565b820191906000526020600020905b81548152906001019060200180831161115157829003601f168201915b5050505050908060030154908060040160009054906101000a900460ff16905085565b600080600061119f846109bc565b91509150806111b357600092505050611302565b6001600683815481106111c257fe5b906000526020600020906009020160070154146111e457600092505050611302565b6000600683815481106111f357fe5b90600052602060002090600902016001015490506000603c6006858154811061121857fe5b90600052602060002090600902016008015442038161123357fe5b049050600061127f6006868154811061124857fe5b9060005260206000209060090201600101546006878154811061126757fe5b906000526020600020906009020160040154846117cc565b905060006006868154811061129057fe5b90600052602060002090600902016008015462278d00600688815481106112b357fe5b90600052602060002090600902016003015402420311156112d45760035490505b600686815481106112e157fe5b90600052602060002090600902016002015481838601010396505050505050505b919050565b6000600460003373ffffffffffffffffffffffffffffffffffffffff1673ffffffffffffffffffffffffffffffffffffffff1681526020019081526020016000206000015414156114485761135a611bd9565b6040518060a0016040528060016000815480929190600101919050558152602001868152602001858152602001848152602001831515815250905080600460003373ffffffffffffffffffffffffffffffffffffffff1673ffffffffffffffffffffffffffffffffffffffff1681526020019081526020016000206000820151816000015560208201518160010190805190602001906113fb929190611c0a565b506040820151816002019080519060200190611418929190611c0a565b506060820151816003015560808201518160040160006101000a81548160ff021916908315150217905550905050505b50505050565b611456611bd9565b600460008373ffffffffffffffffffffffffffffffffffffffff1673ffffffffffffffffffffffffffffffffffffffff1681526020019081526020016000206040518060a001604052908160008201548152602001600182018054600181600116156101000203166002900480601f0160208091040260200160405190810160405280929190818152602001828054600181600116156101000203166002900480156115435780601f1061151857610100808354040283529160200191611543565b820191906000526020600020905b81548152906001019060200180831161152657829003601f168201915b50505050508152602001600282018054600181600116156101000203166002900480601f0160208091040260200160405190810160405280929190818152602001828054600181600116156101000203166002900480156115e55780601f106115ba576101008083540402835291602001916115e5565b820191906000526020600020905b8154815290600101906020018083116115c857829003601f168201915b50505050508152602001600382015481526020016004820160009054906101000a900460ff1615151515815250509050919050565b60008061162683611805565b915091508047101561166d576040517f08c379a0000000000000000000000000000000000000000000000000000000008152600401611664906128bb565b60405180910390fd5b80600560003373ffffffffffffffffffffffffffffffffffffffff1673ffffffffffffffffffffffffffffffffffffffff168152602001908152602001600020600082825403925050819055508173ffffffffffffffffffffffffffffffffffffffff166108fc829081150290604051600060405180830381858888f19350505050158015611700573d6000803e3d6000fd5b50505050565b60008054906101000a900473ffffffffffffffffffffffffffffffffffffffff1681565b6000600354905090565b60008054906101000a900473ffffffffffffffffffffffffffffffffffffffff1673ffffffffffffffffffffffffffffffffffffffff163373ffffffffffffffffffffffffffffffffffffffff16146117c2576040517f08c379a00000000000000000000000000000000000000000000000000000000081526004016117b99061299b565b60405180910390fd5b8060038190555050565b60006018603c61016d60648587890202816117e357fe5b04816117eb57fe5b04816117f357fe5b04816117fb57fe5b0490509392505050565b600080600080611814856109bc565b9150915080611858576040517f08c379a000000000000000000000000000000000000000000000000000000000815260040161184f9061287b565b60405180910390fd5b3373ffffffffffffffffffffffffffffffffffffffff166006838154811061187c57fe5b906000526020600020906009020160050160009054906101000a900473ffffffffffffffffffffffffffffffffffffffff1673ffffffffffffffffffffffffffffffffffffffff1614611904576040517f08c379a00000000000000000000000000000000000000000000000000000000081526004016118fb9061281b565b60405180910390fd5b60036006838154811061191357fe5b90600052602060002090600902016007015414611965576040517f08c379a000000000000000000000000000000000000000000000000000000000815260040161195c9061293b565b60405180910390fd5b60006006838154811061197457fe5b906000526020600020906009020160050160009054906101000a900473ffffffffffffffffffffffffffffffffffffffff1690506000600684815481106119b757fe5b90600052602060002090600902016001015490506006600160068054905003815481106119e057fe5b9060005260206000209060090201600685815481106119fb57fe5b906000526020600020906009020160008201548160000155600182015481600101556002820154816002015560038201548160030155600482015481600401556005820160009054906101000a900473ffffffffffffffffffffffffffffffffffffffff168160050160006101000a81548173ffffffffffffffffffffffffffffffffffffffff021916908373ffffffffffffffffffffffffffffffffffffffff1602179055506006820160009054906101000a900473ffffffffffffffffffffffffffffffffffffffff168160060160006101000a81548173ffffffffffffffffffffffffffffffffffffffff021916908373ffffffffffffffffffffffffffffffffffffffff16021790555060078201548160070155600882015481600801559050506006805480611b2b57fe5b600190038181906000526020600020906009020160008082016000905560018201600090556002820160009055600382016000905560048201600090556005820160006101000a81549073ffffffffffffffffffffffffffffffffffffffff02191690556006820160006101000a81549073ffffffffffffffffffffffffffffffffffffffff0219169055600782016000905560088201600090555050905581819550955050505050915091565b6040518060a00160405280600081526020016060815260200160608152602001600081526020016000151581525090565b828054600181600116156101000203166002900490600052602060002090601f016020900481019282601f10611c4b57805160ff1916838001178555611c79565b82800160010185558215611c79579182015b82811115611c78578251825591602001919060010190611c5d565b5b509050611c869190611d02565b5090565b6040518061012001604052806000815260200160008152602001600081526020016000815260200160008152602001600073ffffffffffffffffffffffffffffffffffffffff168152602001600073ffffffffffffffffffffffffffffffffffffffff16815260200160008152602001600081525090565b5b80821115611d1b576000816000905550600101611d03565b5090565b600081359050611d2e81612c25565b92915050565b600081359050611d4381612c3c565b92915050565b600082601f830112611d5a57600080fd5b8135611d6d611d6882612af8565b612acb565b91508082526020830160208301858383011115611d8957600080fd5b611d94838284612bd2565b50505092915050565b600081359050611dac81612c53565b92915050565b600060208284031215611dc457600080fd5b6000611dd284828501611d1f565b91505092915050565b60008060008060808587031215611df157600080fd5b600085013567ffffffffffffffff811115611e0b57600080fd5b611e1787828801611d49565b945050602085013567ffffffffffffffff811115611e3457600080fd5b611e4087828801611d49565b9350506040611e5187828801611d9d565b9250506060611e6287828801611d34565b91505092959194509250565b60008060008060808587031215611e8457600080fd5b600085013567ffffffffffffffff811115611e9e57600080fd5b611eaa87828801611d49565b945050602085013567ffffffffffffffff811115611ec757600080fd5b611ed387828801611d49565b9350506040611ee487828801611d9d565b9250506060611ef587828801611d9d565b91505092959194509250565b600080600080600060a08688031215611f1957600080fd5b600086013567ffffffffffffffff811115611f3357600080fd5b611f3f88828901611d49565b955050602086013567ffffffffffffffff811115611f5c57600080fd5b611f6888828901611d49565b9450506040611f7988828901611d9d565b9350506060611f8a88828901611d9d565b9250506080611f9b88828901611d34565b9150509295509295909350565b600060208284031215611fba57600080fd5b6000611fc884828501611d9d565b91505092915050565b6000611fdd838361264c565b6101208301905092915050565b611ff381612b8a565b82525050565b61200281612b8a565b82525050565b600061201382612b34565b61201d8185612b57565b935061202883612b24565b8060005b838110156120595781516120408882611fd1565b975061204b83612b4a565b92505060018101905061202c565b5085935050505092915050565b61206f81612b9c565b82525050565b61207e81612b9c565b82525050565b600061208f82612b3f565b6120998185612b68565b93506120a9818560208601612be1565b6120b281612c14565b840191505092915050565b60006120c882612b3f565b6120d28185612b79565b93506120e2818560208601612be1565b6120eb81612c14565b840191505092915050565b6000612103601283612b79565b91507f4c6f616e206973206e6f742061637469766500000000000000000000000000006000830152602082019050919050565b6000612143600e83612b79565b91507f4c6f616e206e6f7420666f756e640000000000000000000000000000000000006000830152602082019050919050565b6000612183603683612b79565b91507f4f6e6c7920746865206f6e652077686f20706f7374656420746865206f66666560008301527f722063616e2063616e63656c20746865206f66666572000000000000000000006020830152604082019050919050565b60006121e9602283612b79565b91507f506c6561736520646f6e2774207472616e7366657220657874726120616d6f7560008301527f6e740000000000000000000000000000000000000000000000000000000000006020830152604082019050919050565b600061224f602283612b79565b91507f4c6f616e20616c72656164792074616b656e20627920736f6d656f6e6520656c60008301527f73650000000000000000000000000000000000000000000000000000000000006020830152604082019050919050565b60006122b5602383612b79565b91507f4f66666572696e67204964206e6f7420666f756e642e20506c6561736520636860008301527f65636b00000000000000000000000000000000000000000000000000000000006020830152604082019050919050565b600061231b601783612b79565b91507f7465726d2063616e6e6f742062652030206d6f6e7468730000000000000000006000830152602082019050919050565b600061235b601b83612b79565b91507f4c6f7720436f6e74726163742057616c6c65742042616c616e636500000000006000830152602082019050919050565b600061239b602583612b79565b91507f57652063616e2774206c656e6420746f206c6f772063726564697420626f727260008301527f6f776572730000000000000000000000000000000000000000000000000000006020830152604082019050919050565b6000612401603583612b79565b91507f57652063616e2774206c656e6420776974686f757420796f752061677265656960008301527f6e6720666f722074686520636f6c6c61746572616c00000000000000000000006020830152604082019050919050565b6000612467602a83612b79565b91507f506f6f7220796f752e20506c65617365206f6666657220736f6d65206d6f6e6560008301527f79206174206c65617374000000000000000000000000000000000000000000006020830152604082019050919050565b60006124cd602183612b79565b91507f4f6e6c79206f70656e206f66666572732063616e2062652063616e63656c6c6560008301527f64000000000000000000000000000000000000000000000000000000000000006020830152604082019050919050565b6000612533601d83612b79565b91507f446f6e27742074727920746f20747269636b207468652073797374656d0000006000830152602082019050919050565b6000612573601283612b79565b91507f4c6f616e206e6f7420617661696c61626c6500000000000000000000000000006000830152602082019050919050565b60006125b3601d83612b79565b91507f43616e206f6e6c792062652065786563757465642062792061646d696e0000006000830152602082019050919050565b60006125f3602a83612b79565b91507f5a65726f20616d6f756e74206973206e6f742061636365707461626c6520617360008301527f2072657061796d656e74000000000000000000000000000000000000000000006020830152604082019050919050565b610120820160008201516126636000850182612780565b5060208201516126766020850182612780565b5060408201516126896040850182612780565b50606082015161269c6060850182612780565b5060808201516126af6080850182612780565b5060a08201516126c260a0850182611fea565b5060c08201516126d560c0850182611fea565b5060e08201516126e860e0850182612780565b506101008201516126fd610100850182612780565b50505050565b600060a08301600083015161271b6000860182612780565b50602083015184820360208601526127338282612084565b9150506040830151848203604086015261274d8282612084565b91505060608301516127626060860182612780565b5060808301516127756080860182612066565b508091505092915050565b61278981612bc8565b82525050565b61279881612bc8565b82525050565b60006020820190506127b36000830184611ff9565b92915050565b600060208201905081810360008301526127d38184612008565b905092915050565b600060208201905081810360008301526127f4816120f6565b9050919050565b6000602082019050818103600083015261281481612136565b9050919050565b6000602082019050818103600083015261283481612176565b9050919050565b60006020820190508181036000830152612854816121dc565b9050919050565b6000602082019050818103600083015261287481612242565b9050919050565b60006020820190508181036000830152612894816122a8565b9050919050565b600060208201905081810360008301526128b48161230e565b9050919050565b600060208201905081810360008301526128d48161234e565b9050919050565b600060208201905081810360008301526128f48161238e565b9050919050565b60006020820190508181036000830152612914816123f4565b9050919050565b600060208201905081810360008301526129348161245a565b9050919050565b60006020820190508181036000830152612954816124c0565b9050919050565b6000602082019050818103600083015261297481612526565b9050919050565b6000602082019050818103600083015261299481612566565b9050919050565b600060208201905081810360008301526129b4816125a6565b9050919050565b600060208201905081810360008301526129d4816125e6565b9050919050565b600060208201905081810360008301526129f58184612703565b905092915050565b6000602082019050612a12600083018461278f565b92915050565b6000604082019050612a2d600083018561278f565b612a3a6020830184612075565b9392505050565b600060a082019050612a56600083018861278f565b8181036020830152612a6881876120bd565b90508181036040830152612a7c81866120bd565b9050612a8b606083018561278f565b612a986080830184612075565b9695505050505050565b6000604082019050612ab7600083018561278f565b612ac4602083018461278f565b9392505050565b6000604051905081810181811067ffffffffffffffff82111715612aee57600080fd5b8060405250919050565b600067ffffffffffffffff821115612b0f57600080fd5b601f19601f8301169050602081019050919050565b6000819050602082019050919050565b600081519050919050565b600081519050919050565b6000602082019050919050565b600082825260208201905092915050565b600082825260208201905092915050565b600082825260208201905092915050565b6000612b9582612ba8565b9050919050565b60008115159050919050565b600073ffffffffffffffffffffffffffffffffffffffff82169050919050565b6000819050919050565b82818337600083830152505050565b60005b83811015612bff578082015181840152602081019050612be4565b83811115612c0e576000848401525b50505050565b6000601f19601f8301169050919050565b612c2e81612b8a565b8114612c3957600080fd5b50565b612c4581612b9c565b8114612c5057600080fd5b50565b612c5c81612bc8565b8114612c6757600080fd5b5056fea264697066735822122084f246528b265cd4262cf49c21d3be40cda95b8694939f61a8f23e564b13b50e64736f6c634300060c0033",
  "immutableReferences": {},
  "source": "//SPDX-License-Identifier: UNLICENSED\n\npragma solidity ^0.6.0;\npragma experimental ABIEncoderV2;\n\ncontract InstaMoney {\n\n    address public admin;\n    uint public user_id_counter;\n    uint public loan_id_counter;\n    uint private late_fine;\n\n    struct  User {\n        uint id;\n        string name;\n        string identification;\n        uint credit_score;\n        bool signed_collateral_agreement;\n    }\n\n    struct Loan {\n        uint id;\n        uint amount;\n        uint repaid_amt;\n        uint term;      //months\n        uint rate;\n        address lender;\n        address borrower;\n        uint status;    // 1 = Active, 2 = PaidOff , 3 = Open offer\n        uint activated_at;      //timestamp\n    }\n\n    mapping(address => User) public users;\n    mapping(address => uint) private balances;\n    Loan[] private loans;\n\n    modifier onlyAdmin() {\n        require(msg.sender == admin, \"Can only be executed by admin\");\n        _;\n    }\n\n    function getUserDetails(address addr) public view returns (User memory){\n        return users[addr];\n    }\n\n\n    function getLateFine() public view returns(uint){\n        return late_fine;\n    }\n\n    function getAllLoans() public view returns (Loan[] memory){\n        return loans;\n    }\n\n    function changeLateFine(uint new_late_fee) public onlyAdmin {\n        late_fine = new_late_fee;\n    }\n\n    function payOffLoan(uint loan_id) public payable {\n        require(msg.value != 0, \"Zero amount is not acceptable as repayment\");\n\n        (uint at_index, bool found) = find_offer(loan_id);\n\n        require(found, \"Loan not found\");\n        //We are assuming anyone can pay off the loan on behalf of the borrower.\n        //Even the lender or government can pay off if they are willing to forgive the loan\n        require(loans[at_index].status == 1, \"Loan is not active\");\n\n        uint to_repay = calculateRepaymentAmount(loan_id);\n\n        require(msg.value <= to_repay , \"Please don't transfer extra amount\");\n\n        //accept payment\n        loans[at_index].repaid_amt += msg.value;\n        if(msg.value == to_repay) {\n            loans[at_index].status = 2;    //Paid off completely\n        }\n        payable(loans[at_index].lender).transfer(msg.value);\n    }\n\n    function calculateRepaymentAmount(uint loan_id) public view returns(uint) {\n\n        (uint at_index, bool found) = find_offer(loan_id);\n        if(!found) return 0;\n\n        if(loans[at_index].status != 1) return 0;      //is not an active loan\n\n        uint principal = loans[at_index].amount;\n\n        uint time_elapsed_in_minutes = (now - loans[at_index].activated_at) / 60;\n        uint interest = calcInterest(loans[at_index].amount, loans[at_index].rate, time_elapsed_in_minutes);\n\n        uint late_amt = 0;\n        if(now - (loans[at_index].term * 30 days) > loans[at_index].activated_at) {\n            //Repayment is late\n            late_amt = late_fine;\n        }\n        return principal + interest + late_amt - loans[at_index].repaid_amt;\n    }\n\n    function calcInterest(uint amount, uint rate, uint no_of_minutes) private pure returns(uint) {\n        return amount * rate * no_of_minutes / 100 / 365 / 60 / 24;\n    }\n\n//aamir register\n    function borrowReg(string memory borrower_name, string memory identification, uint credit_score, bool signed_collateral_agreement) public payable {\n\n          if (users[msg.sender].id == 0) {\n            User memory user = User({id: user_id_counter++, name: borrower_name, identification: identification , credit_score:credit_score , signed_collateral_agreement:signed_collateral_agreement});\n            users[msg.sender] = user;\n        }\n\n    }\n\n    function takeLoan(string memory borrower_name, string memory identification,\n        uint loan_id, uint credit_score, bool signed_collateral_agreement) public payable {\n        require(credit_score >= 600, \"We can't lend to low credit borrowers\");\n        require(signed_collateral_agreement, \"We can't lend without you agreeing for the collateral\");\n        \n        if (users[msg.sender].id == 0) {\n            User memory user = User({id: user_id_counter++, name: borrower_name, identification: identification,credit_score:credit_score,signed_collateral_agreement:signed_collateral_agreement});\n            users[msg.sender] = user;\n        }\n\n        (uint at_index, bool found) = find_offer(loan_id);\n        require(found, \"Loan not available\");\n        require(loans[at_index].status == 3, \"Loan already taken by someone else\");\n        require(loans[at_index].lender != msg.sender, \"Don't try to trick the system\");\n        \n        //all good. give out loan\n        loans[at_index].borrower = msg.sender;\n        loans[at_index].status = 1; //activate loan\n        loans[at_index].activated_at = now;\n        msg.sender.transfer(loans[at_index].amount);\n    }\n\n    ///term is in days\n    function offerLoan(string memory lender_name, string memory identification,\n                        uint term, uint interest_rate) public payable {\n        require(msg.value != 0, \"Poor you. Please offer some money at least\");\n        require(term != 0, \"term cannot be 0 months\");\n        if (users[msg.sender].id == 0) {\n            User memory user = User({id: user_id_counter++, name: lender_name, identification: identification,credit_score:0,signed_collateral_agreement:false});\n            users[msg.sender] = user;\n        }\n\n        Loan memory offer = Loan({id: loan_id_counter++, amount: msg.value, repaid_amt: 0, term: term,\n         rate: interest_rate, lender: msg.sender, borrower: address(0), status: 3, activated_at: 0});  //open offer\n\n        loans.push(offer);\n\n        balances[msg.sender] += msg.value;\n\n        //if this fails, all the above state changes will be reverted\n    }\n\n\n\n    function getBal() public view returns(uint){\n        return address(this).balance;\n    }\n\n    function getTotalProcessed() view public returns(uint, uint){\n        uint loans_until_now = loans.length;\n        uint clients_served = 0;\n        for (uint j = 0; j < loans.length ; j += 1) {\n            if(loans[j].status == 2){\n                clients_served += 2;\n            } else {\n                clients_served += 1;\n            }\n        }\n\n        return (loans_until_now, clients_served);\n    }\n\n    function cancelOffer(uint offer_id) public payable{\n\n        (address payable lender_addr, uint amount_to_return) = removeOffering(offer_id);\n        require(address(this).balance >= amount_to_return, \"Low Contract Wallet Balance\");\n        balances[msg.sender] -= amount_to_return;\n        lender_addr.transfer(amount_to_return);\n    }\n\n    function removeOffering(uint offer_id) private returns(address payable, uint) {\n\n        (uint at_index, bool found) = find_offer(offer_id);\n\n        require(found, \"Offering Id not found. Please check\");\n        require(loans[at_index].lender == msg.sender, \"Only the one who posted the offer can cancel the offer\");\n        require(loans[at_index].status == 3, \"Only open offers can be cancelled\");\n\n        address payable lender_addr = payable(loans[at_index].lender);\n        uint amount_to_return = loans[at_index].amount;\n        loans[at_index] = loans[loans.length - 1];\n        loans.pop();\n\n        return (lender_addr, amount_to_return);\n    }\n\n    function find_offer(uint offer_id) public view returns (uint, bool) {\n        for (uint j = 0; j < loans.length ; j += 1) {\n            if(loans[j].id == offer_id){\n                return (j, true);\n            }\n        }\n        return (0, false);\n    }\n\n    constructor () public payable {\n        admin = msg.sender;\n        user_id_counter = 1;\n        loan_id_counter = 1;\n        late_fine = 4000;\n        payable(address(this)).transfer(msg.value);\n    }\n\n}",
  "sourcePath": "C:\\Users\\aamir\\Desktop\\instamoney\\contracts\\InstaMoney.sol",
  "compiler": {
    "name": "solc",
    "version": "0.6.12+commit.27d51765.Emscripten.clang"
  },
  "schemaVersion": "3.4.5",
  "updatedAt": "2022-05-08T02:10:47.637Z",
  "devdoc": {
    "kind": "dev",
    "methods": {},
    "version": 1
  },
  "userdoc": {
    "kind": "user",
    "methods": {
      "offerLoan(string,string,uint256,uint256)": {
        "notice": "term is in days"
      }
    },
    "version": 1
  }
}